:100000000C942A000C943F000C943F000C943F0089
:100010000C943F000C943F000C943F000C943F0064
:100020000C943F000C943F000C943F000C943F0054
:100030000C943F000C943F000C943F000C943F0044
:100040000C943F000C943F000C943F000C943F0034
:100050000C943F0011241FBECFE5D8E0DEBFCDBF1A
:1000600012E0A0E6B0E0E0E9F4E502C005900D92F0
:10007000A231B107D9F70E94A5100C94462A0C941E
:100080000000EF92FF920F931F937B018C0120E001
:1000900030E040E05FE40E94410388238CF0C80117
:1000A000B70120E030E040E05FE40E94B9010E9427
:1000B000A1039B01AC01205030404040504806C095
:1000C000C801B7010E94A1039B01AC01B901CA019B
:1000D0001F910F91FF90EF900895A0E0B0E0E3E74B
:1000E000F0E00C94062ADC012B01FA019C9192307D
:1000F00008F439C1EB018881823008F433C19430AF
:1001000069F4843009F02FC111969C91119789816F
:10011000981709F428C1ABEEB1E025C1843009F489
:1001200021C18230A9F4923009F01DC19A01AD01BC
:1001300088E0EA010990AE01E90109929E0181502F
:10014000C1F7E201898111969C918923818308C1BD
:10015000923009F407C112962D903C901397EB0151
:100160008A819B811496AD90BD90CD90DC901797BD
:10017000EC80FD800E811F819101281B390BB90194
:1001800037FF04C066277727621B730B6032710547
:100190000CF061C0121613066CF537014801062EEB
:1001A00004C096948794779467940A94D2F721E0D8
:1001B00030E040E050E004C0220F331F441F551FC1
:1001C0006A95D2F721503040404050402E213F21C7
:1001D00040235123211531054105510521F021E02E
:1001E00030E040E050E079018A01E628F72808294C
:1001F00019293CC0232BD1F1260E371E35014601AB
:10020000062E04C096948794779467940A94D2F744
:1002100021E030E040E050E004C0220F331F441FD3
:10022000551F6A95D2F721503040404050402A2156
:100230003B214C215D21211531054105510521F05E
:1002400021E030E040E050E059016A01A628B728DB
:10025000C828D9280BC0821593052CF01C01AA24AC
:10026000BB24650103C0EE24FF24870111969C91F5
:10027000D20111968C91981709F445C0992339F051
:10028000A80197012A193B094C095D0906C0A6017E
:1002900095012E193F09400B510B57FD08C01182E3
:1002A0003382228224833583468357831DC081E0B5
:1002B00081833382228288279927DC01821B930B5A
:1002C000A40BB50B84839583A683B7830DC0220F3F
:1002D000331F441F551F24833583468357838281F0
:1002E000938101979383828324813581468157814D
:1002F000DA01C9010197A109B1098F5F9F4FAF4F83
:10030000BF4328F30BC0918333822282EA0CFB1C8B
:100310000C1D1D1DE482F5820683178383E0808314
:10032000248135814681578157FF1AC0C901AA2708
:1003300097FDA095BA2F81709070A070B0705695FF
:10034000479537952795822B932BA42BB52B848328
:100350009583A683B7838281938101969383828359
:10036000DF0101C0D201CD01CDB7DEB7E2E10C94CF
:10037000222AA0E2B0E0EFEBF1E00C94122A6983AC
:100380007A838B839C832D833E834F835887E9E058
:10039000EE2EF12CEC0EFD1ECE010196B7010E944F
:1003A000CA048E010F5E1F4FCE010596B8010E9450
:1003B000CA048A8991E089278A8BC701B801AE01F6
:1003C000475E5F4F0E946D000E94F503A096E6E035
:1003D0000C942E2AA0E2B0E0E0EFF1E00C94122A97
:1003E00069837A838B839C832D833E834F835887D5
:1003F000F9E0EF2EF12CEC0EFD1ECE010196B701B7
:100400000E94CA048E010F5E1F4FCE010596B801EF
:100410000E94CA04C701B801AE01475E5F4F0E9447
:100420006D000E94F503A096E6E00C942E2AA0E24F
:10043000B0E0EDE1F2E00C94062A69837A838B83C5
:100440009C832D833E834F835887CE010196BE0146
:10045000675F7F4F0E94CA04CE010596BE016F5EA2
:100460007F4F0E94CA049985923088F08989823032
:10047000C8F0943019F4823051F404C0843029F467
:10048000923081F48BEE91E0C6C0923049F420E0C6
:100490009A858A89981321E02A87CE010996BBC0E4
:1004A000823049F420E09A858A89981321E02A8BCA
:1004B000CE014196B0C02D843E844F8458886D880B
:1004C0007E888F88988CEE24FF248701AA24BB2481
:1004D000650140E050E060E070E0E0E0F0E0C10184
:1004E00081709070892BE9F0E60CF71C081D191D2E
:1004F0009A01AB012A0D3B1D4C1D5D1D80E090E073
:10050000A0E0B0E0E614F7040805190520F481E046
:1005100090E0A0E0B0E0BA01A901480F591F6A1F9E
:100520007B1FAA0CBB1CCC1CDD1C97FE08C081E005
:1005300090E0A0E0B0E0A82AB92ACA2ADB2A3196C6
:10054000E032F10549F0660C771C881C991C569422
:10055000479437942794C3CFFA85EA892B893C893D
:100560008B859C85280F391F2E5F3F4F17C0CA010E
:1005700081709070892B61F016950795F794E79438
:1005800080E090E0A0E0B0E8E82AF92A0A2B1B2BD3
:1005900076956795579547952F5F3F4F77FDE7CF46
:1005A0000CC0440F551F661F771F17FD4160EE0CEE
:1005B000FF1C001F111F21503040403090E05907B0
:1005C00090E0690790E4790760F32B8F3C8FDB01A3
:1005D000CA018F779070A070B07080349105A1052A
:1005E000B10561F447FD0AC0E114F10401051105EC
:1005F00029F0405C5F4F6F4F7F4F40781A8EFE1797
:1006000011F081E08A8F4D8F5E8F6F8F78A383E02A
:10061000898FCE0149960E94F503A096E2E10C94E1
:10062000222AA8E1B0E0E7E1F3E00C94122A698302
:100630007A838B839C832D833E834F83588789E005
:10064000E82EF12CEC0EFD1ECE010196B7010E94A2
:10065000CA048E010F5E1F4FCE010596B8010E949D
:10066000CA048985823040F08989823028F0C70128
:10067000B8010E94420501C08FEF6896E6E00C9435
:100680002E2AA8E1B0E0E7E4F3E00C94122A698393
:100690007A838B839C832D833E834F83588789E0A5
:1006A000E82EF12CEC0EFD1ECE010196B7010E9442
:1006B000CA048E010F5E1F4FCE010596B8010E943D
:1006C000CA048985823040F08989823028F0C701C8
:1006D000B8010E94420501C08FEF6896E6E00C94D5
:1006E0002E2AA8E1B0E0E7E7F3E00C94122A698330
:1006F0007A838B839C832D833E834F83588789E045
:10070000E82EF12CEC0EFD1ECE010196B7010E94E1
:10071000CA048E010F5E1F4FCE010596B8010E94DC
:10072000CA048985823040F08989823028F0C70167
:10073000B8010E94420501C081E06896E6E00C9491
:100740002E2AACE0B0E0E7EAF3E00C94162A6983C5
:100750007A838B839C83CE010196BE016B5F7F4FB2
:100760000E94CA048D81823061F1823050F1843060
:1007700021F48E81882351F12EC02F81388537FDD9
:1007800020C06E812F3131051CF06623F9F023C0A3
:100790008EE190E0821B930B29853A854B855C8521
:1007A00004C056954795379527958A95D2F76623C5
:1007B000B1F050954095309521953F4F4F4F5F4F89
:1007C0000EC020E030E040E050E009C02FEF3FEFE6
:1007D0004FEF5FE704C020E030E040E050E8B901AF
:1007E000CA012C96E2E00C94322ADF92EF92FF923B
:1007F0000F931F93FC01E480F58006811781D1805F
:100800008081823048F480E090E0A0E1B0E0E82A06
:10081000F92A0A2B1B2BA5C0843009F49FC0823013
:1008200021F4EE24FF24870105C0E114F104010541
:10083000110519F4E0E0F0E096C0628173819FEF4A
:10084000623879070CF05BC022E83FEF261B370BBC
:100850002A3131052CF020E030E040E050E02AC0A1
:10086000B801A701022E04C0769567955795479564
:100870000A94D2F781E090E0A0E0B0E004C0880FD5
:10088000991FAA1FBB1F2A95D2F70197A109B10989
:100890008E219F21A023B1230097A105B10521F04E
:1008A00081E090E0A0E0B0E09A01AB01282B392B69
:1008B0004A2B5B2BDA01C9018F779070A070B07062
:1008C00080349105A105B10539F427FF09C0205CEA
:1008D0003F4F4F4F5F4F04C0215C3F4F4F4F5F4F23
:1008E000E0E0F0E02030A0E03A07A0E04A07A0E412
:1008F0005A0710F0E1E0F0E079018A0127C0603882
:10090000710564F5FB01E158FF4FD801C7018F77EE
:100910009070A070B07080349105A105B10539F4D4
:10092000E7FE0DC080E490E0A0E0B0E004C08FE3FB
:1009300090E0A0E0B0E0E80EF91E0A1F1B1F17FFB1
:1009400005C016950795F794E794319687E01695BC
:100950000795F794E7948A95D1F705C0EE24FF2414
:100960008701EFEFF0E06E2F679566276795902F70
:100970009F77D794DD24D7948E2F8695492F462BC9
:10098000582F5D29B701CA011F910F91FF90EF9079
:10099000DF900895FC01DB01408151812281622FAB
:1009A0006F7770E0221F2227221F9381892F880FE3
:1009B000822B282F30E0991F9927991F11969C931D
:1009C000119721153105A9F54115510561057105ED
:1009D00011F482E037C082E89FEF13969C938E93C8
:1009E00012979A01AB0167E0220F331F441F551F76
:1009F0006A95D1F783E08C930DC0220F331F441FFB
:100A0000551F12968D919C911397019713969C9365
:100A10008E931297203080E0380780E0480780E40A
:100A2000580758F314962D933D934D935C93179765
:100A300008952F3F310579F4411551056105710580
:100A400019F484E08C93089564FF03C081E08C93D3
:100A500012C01C9210C02F57304013963C932E9317
:100A6000129783E08C9387E0440F551F661F771F12
:100A70008A95D1F7706414964D935D936D937C9332
:100A8000179708951F93DC01FB019C91923008F4A5
:100A900047C08081823008F443C0943051F41196ED
:100AA0001C91843099F58181682F70E0611B710978
:100AB0003FC0843021F0923031F48230B9F181812D
:100AC000882389F12DC011961C9111978230F1F085
:100AD00081811817D9F412962D913C911397828138
:100AE00093818217930794F028173907BCF0149666
:100AF0008D919D910D90BC91A02D248135814681D1
:100B00005781281739074A075B0718F4112341F06A
:100B10000AC082179307A407B50740F4112319F000
:100B200061E070E005C06FEF7FEF02C060E070E051
:100B3000CB011F910895DF93CF93CDB7DEB72897F0
:100B40000FB6F894DEBF0FBECDBF8A836B834C8394
:100B50008A81843008F0F5C08B81883008F0F1C0BC
:100B60008C81823008F0EDC081E089838C818130F6
:100B700009F06FC08A81282F30E038872F838F815A
:100B800098858130910549F12F81388522303105D2
:100B90002CF48F819885009761F0D4C02F8138851F
:100BA0002230310571F18F81988583309105E9F10B
:100BB000C9C0AAE3B0E0EAE3F0E08081482F8B816E
:100BC000282F30E081E090E0022E02C0880F991FAC
:100BD0000A94E2F7842B8C93B5C0A7E3B0E0E7E377
:100BE000F0E08081482F8B81282F30E081E090E079
:100BF000022E02C0880F991F0A94E2F7842B8C936F
:100C0000A1C0A4E3B0E0E4E3F0E08081482F8B8151
:100C1000282F30E081E090E0022E02C0880F991F5B
:100C20000A94E2F7842B8C938DC0A1E3B0E0E1E35A
:100C3000F0E08081482F8B81282F30E081E090E028
:100C4000022E02C0880F991F0A94E2F7842B8C931E
:100C500079C08C81882309F075C08A81282F30E003
:100C60003E832D838D819E818130910559F12D81A7
:100C70003E81223031052CF48D819E81009769F0F0
:100C800061C02D813E812230310589F18D819E81A7
:100C90008330910509F440C055C0AAE3B0E0EAE30F
:100CA000F0E08081482F8B81282F30E081E090E0B8
:100CB000022E02C0880F991F0A94E2F780958423C0
:100CC0008C9340C0A7E3B0E0E7E3F0E08081482FD9
:100CD0008B81282F30E081E090E0022E02C0880F47
:100CE000991F0A94E2F7809584238C932BC0A4E388
:100CF000B0E0E4E3F0E08081482F8B81282F30E0E2
:100D000081E090E0022E02C0880F991F0A94E2F75A
:100D1000809584238C9316C0A1E3B0E0E1E3F0E07A
:100D20008081482F8B81282F30E081E090E0022ED7
:100D300002C0880F991F0A94E2F7809584238C9350
:100D400001C01982898128960FB6F894DEBF0FBEC4
:100D5000CDBFCF91DF910895DF93CF93CDB7DEB7AD
:100D600028970FB6F894DEBF0FBECDBF8A836B8382
:100D70004C838A81843008F0F5C08B81883008F07C
:100D8000F1C08C81823008F0EDC081E089838C81D4
:100D9000813009F06FC08A81282F30E038872F8397
:100DA0008F8198858130910549F12F8138852230D6
:100DB00031052CF48F819885009761F0D4C02F8184
:100DC00038852230310571F18F8198858330910506
:100DD000E9F1C9C0ABE3B0E0EBE3F0E08081482F7C
:100DE0008B81282F30E081E090E0022E02C0880F36
:100DF000991F0A94E2F7842B8C93B5C0A8E3B0E066
:100E0000E8E3F0E08081482F8B81282F30E081E0FB
:100E100090E0022E02C0880F991F0A94E2F7842BFB
:100E20008C93A1C0A5E3B0E0E5E3F0E08081482F1A
:100E30008B81282F30E081E090E0022E02C0880FE5
:100E4000991F0A94E2F7842B8C938DC0A2E3B0E043
:100E5000E2E3F0E08081482F8B81282F30E081E0B1
:100E600090E0022E02C0880F991F0A94E2F7842BAB
:100E70008C9379C08C81882309F075C08A81282FD2
:100E800030E03E832D838D819E818130910559F123
:100E90002D813E81223031052CF48D819E81009779
:100EA00069F061C02D813E812230310589F18D814B
:100EB0009E818330910509F440C055C0ABE3B0E09A
:100EC000EBE3F0E08081482F8B81282F30E081E038
:100ED00090E0022E02C0880F991F0A94E2F78095D5
:100EE00084238C9340C0A8E3B0E0E8E3F0E0808185
:100EF000482F8B81282F30E081E090E0022E02C045
:100F0000880F991F0A94E2F7809584238C932BC055
:100F1000A5E3B0E0E5E3F0E08081482F8B81282F46
:100F200030E081E090E0022E02C0880F991F0A9401
:100F3000E2F7809584238C9316C0A2E3B0E0E2E34D
:100F4000F0E08081482F8B81282F30E081E090E015
:100F5000022E02C0880F991F0A94E2F7809584231D
:100F60008C9301C01982898128960FB6F894DEBF50
:100F70000FBECDBFCF91DF910895DF93CF93CDB753
:100F8000DEB727970FB6F894DEBF0FBECDBF8A83BA
:100F90006B835D834C838A81843008F077C08B81BA
:100FA000883008F073C081E089838A81282F30E07F
:100FB0003F832E834E815F814130510559F18E81EF
:100FC0009F818230910534F42E813F8121153105B6
:100FD00069F05DC04E815F814230510579F18E81AB
:100FE0009F818330910509F43DC051C0E9E3F0E0F1
:100FF0008081282F30E08B81882F90E0A90102C0EA
:10100000559547958A95E2F7CA018170EC81FD817B
:1010100080833DC0E6E3F0E08081282F30E08B81C3
:10102000882F90E0A90102C0559547958A95E2F76F
:10103000CA018170EC81FD81808329C0E9E3F0E081
:101040008081282F30E08B81882F90E0A90102C099
:10105000559547958A95E2F7CA018170EC81FD812B
:10106000808315C0E9E3F0E08081282F30E08B8198
:10107000882F90E0A90102C0559547958A95E2F71F
:10108000CA018170EC81FD81808301C01982898150
:1010900027960FB6F894DEBF0FBECDBFCF91DF917C
:1010A0000895DF93CF9300D000D00F92CDB7DEB775
:1010B0008A836B838A81843008F075C08B81883085
:1010C00008F071C081E089838A81282F30E03D8358
:1010D0002C838C819D818130910549F12C813D814A
:1010E000223031052CF48C819D81009761F05CC029
:1010F0002C813D812230310571F18C819D818330BD
:101100009105E9F151C0ABE3B0E0EBE3F0E08081A1
:10111000482F8B81282F30E081E090E0022E02C022
:10112000880F991F0A94E2F784278C933DC0A8E3A7
:10113000B0E0E8E3F0E08081482F8B81282F30E099
:1011400081E090E0022E02C0880F991F0A94E2F716
:1011500084278C9329C0A5E3B0E0E5E3F0E080812B
:10116000482F8B81282F30E081E090E0022E02C0D2
:10117000880F991F0A94E2F784278C9315C0A2E385
:10118000B0E0E2E3F0E08081482F8B81282F30E04F
:1011900081E090E0022E02C0880F991F0A94E2F7C6
:1011A00084278C9301C0198289810F900F900F9032
:1011B0000F900F90CF91DF910895DF93CF9300D0E0
:1011C00000D00F92CDB7DEB78A836B838A818430DB
:1011D000A8F581E089838A81282F30E03D832C8324
:1011E0008C819D8181309105D1F02C813D8122300F
:1011F00031052CF48C819D81009761F020C02C81F9
:101200003D812230310581F08C819D8183309105B3
:1012100081F015C0EAE3F0E08B81808310C0E7E342
:10122000F0E08B8180830BC0E4E3F0E08B8180836E
:1012300006C0E1E3F0E08B81808301C019828981DF
:101240000F900F900F900F900F90CF91DF91089516
:10125000DF93CF9300D000D00F92CDB7DEB78A8353
:101260006B838A818430A8F581E089838A81282F65
:1012700030E03D832C838C819D8181309105D1F0BC
:101280002C813D81223031052CF48C819D81009789
:1012900061F020C02C813D812230310581F08C81AC
:1012A0009D818330910581F015C0EBE3F0E08B81E7
:1012B000808310C0E8E3F0E08B8180830BC0E5E31E
:1012C000F0E08B81808306C0E2E3F0E08B818083D5
:1012D00001C0198289810F900F900F900F900F908D
:1012E000CF91DF910895DF93CF93CDB7DEB780E044
:1012F00060E041E00E949B0580E061E041E00E94E7
:101300009B0580E062E041E00E949B0580E063E095
:1013100041E00E949B0580E060E041E00E94AC0655
:1013200080E061E041E00E94AC0680E062E041E0E4
:101330000E94AC0680E063E041E00E94AC0681E0E0
:1013400060E040E00E949B0581E061E040E00E9497
:101350009B0581E062E040E00E949B0581E063E044
:1013600040E00E949B0581E060E041E00E94AC0605
:1013700081E061E041E00E94AC0681E062E041E092
:101380000E94AC0681E063E041E00E94AC06CF9190
:10139000DF910895DF93CF93CDB7DEB762970FB695
:1013A000F894DEBF0FBECDBF81E08A8B80E48F87CB
:1013B000198AB2C080E0698940E00E94AC06188AB0
:1013C0009FC09E012E5E3F4F81E06889A9010E9467
:1013D000BD078A89882309F090C008C09E012E5E4F
:1013E0003F4F81E06889A9010E94BD078A8988234F
:1013F000A9F38889482F50E08989282F30E0CA0155
:10140000880F991F880F991F820F931FFC01ED50C1
:10141000FE4F80818F8780E090E0A0EAB1E48B8767
:101420009C87AD87BE876B857C858D859E8520E0FA
:1014300030E04AEF54E40E941702DC01CB018F83B5
:101440009887A987BA876F81788589859A8520E0F2
:1014500030E040E85FE30E94710388232CF481E0D0
:1014600090E09E838D833FC06F81788589859A85C2
:1014700020E03FEF4FE757E40E94110318164CF5A8
:101480006B857C858D859E8520E030E040E251E4CF
:101490000E941702DC01CB01BC01CD010E9441007A
:1014A000DC01CB019E838D830FC088EC90E09C8390
:1014B0008B838B819C810197F1F79C838B838D813A
:1014C0009E8101979E838D838D819E81009769F710
:1014D00014C06F81788589859A850E944100DC015E
:1014E000CB019E838D838D819E819A83898389819F
:1014F0009A810197F1F79A83898388898F5F888B16
:101500008889843008F45DCF80E0698941E00E94D9
:10151000AC0689898F5F898B8989843008F44ACF2A
:101520008F8562960FB6F894DEBF0FBECDBFCF9108
:10153000DF910895DF93CF930F92CDB7DEB781E0AF
:10154000898383E067E041E00E949B0583E065E0DA
:1015500041E00E949B0583E066E041E00E949B051C
:1015600082E06FEF0E94DD0889810F90CF91DF91BB
:1015700008950F931F93DF93CF93CDB7DEB7C65473
:10158000D0400FB6F894DEBF0FBECDBFFE01ED5BBD
:10159000FF4F80E090E0A0E2B2E480839183A283D9
:1015A000B3838E01015C1F4FFE01ED5BFF4F608135
:1015B00071818281938120E030E04AEF54E40E94FF
:1015C0001702DC01CB01F80180839183A283B383EE
:1015D000FE01FF96608171818281938120E030E07D
:1015E00040E85FE30E94710388232CF481E090E0DF
:1015F0009EAF8DAF46C0FE01FF96608171818281F2
:10160000938120E03FEF4FE757E40E941103181643
:1016100064F5FE01ED5BFF4F6081718182819381F2
:1016200020E030E040E251E40E941702DC01CB01EF
:10163000BC01CD010E944100DC01CB019EAF8DAF0A
:101640000FC088EC90E09CAF8BAF8BAD9CAD019749
:10165000F1F79CAF8BAF8DAD9EAD01979EAF8DAF77
:101660008DAD9EAD009769F716C0FE01FF966081B3
:101670007181828193810E944100DC01CB019EAF88
:101680008DAF8DAD9EAD9AAF89AF89AD9AAD019703
:10169000F1F79AAF89AF88E30E942B0D80E090E0CC
:1016A000A0E8BFE38DAB9EABAFABB8AF6DA97EA991
:1016B0008FA998AD20E030E04AEF54E40E94170271
:1016C000DC01CB0189AB9AABABABBCAB69A97AA906
:1016D0008BA99CA920E030E040E85FE30E94710301
:1016E00088232CF481E090E098AB8FA73FC069A9D4
:1016F0007AA98BA99CA920E03FEF4FE757E40E940D
:10170000110318164CF56DA97EA98FA998AD20E09C
:1017100030E040E251E40E941702DC01CB01BC0141
:10172000CD010E944100DC01CB0198AB8FA70FC017
:1017300088EC90E09EA78DA78DA59EA50197F1F757
:101740009EA78DA78FA598A9019798AB8FA78FA566
:1017500098A9009769F714C069A97AA98BA99CA9CF
:101760000E944100DC01CB0198AB8FA78FA598A9FF
:101770009CA78BA78BA59CA50197F1F79CA78BA78E
:101780008CE00E942B0D80E090E0A0E8BFE38FA3E7
:1017900098A7A9A7BAA76FA178A589A59AA520E0BF
:1017A00030E04AEF54E40E941702DC01CB018BA326
:1017B0009CA3ADA3BEA36BA17CA18DA19EA120E0A3
:1017C00030E040E85FE30E94710388232CF481E05D
:1017D00090E09AA389A33FC06BA17CA18DA19EA19B
:1017E00020E03FEF4FE757E40E94110318164CF535
:1017F0006FA178A589A59AA520E030E040E251E4E8
:101800000E941702DC01CB01BC01CD010E94410006
:10181000DC01CB019AA389A30FC088EC90E098A3C8
:101820008F8F8F8D98A10197F1F798A38F8F89A142
:101830009AA101979AA389A389A19AA1009769F710
:1018400014C06BA17CA18DA19EA10E944100DC016E
:10185000CB019AA389A389A19AA19E8F8D8F8D8D8B
:101860009E8D0197F1F79E8F8D8F81E00E942B0D49
:1018700080E090E0A0E4B0E4898F9A8FAB8FBC8FBA
:10188000698D7A8D8B8D9C8D20E030E04AEF54E499
:101890000E941702DC01CB018D8B9E8BAF8BB88F22
:1018A0006D897E898F89988D20E030E040E85FE384
:1018B0000E94710388232CF481E090E09C8B8B8B39
:1018C0003FC06D897E898F89988D20E03FEF4FE77B
:1018D00057E40E94110318164CF5698D7A8D8B8D93
:1018E0009C8D20E030E040E251E40E941702DC01D0
:1018F000CB01BC01CD010E944100DC01CB019C8BDE
:101900008B8B0FC088EC90E09A8B898B89899A89A0
:101910000197F1F79A8B898B8B899C8901979C8B16
:101920008B8B8B899C89009769F714C06D897E89A0
:101930008F89988D0E944100DC01CB019C8B8B8BA1
:101940008B899C89988B8F878F8598890197F1F770
:10195000988B8F8786E00E942B0D80E090E0A0E8B6
:10196000BFE38B879C87AD87BE876B857C858D8524
:101970009E8520E030E04AEF54E40E941702DC012B
:10198000CB018F839887A987BA876F8178858985EE
:101990009A8520E030E040E85FE30E9471038823ED
:1019A0002CF481E090E09E838D833FC06F81788529
:1019B00089859A8520E03FEF4FE757E40E941103A5
:1019C00018164CF56B857C858D859E8520E030E072
:1019D00040E251E40E941702DC01CB01BC01CD01C1
:1019E0000E944100DC01CB019E838D830FC088ECF7
:1019F00090E09C838B838B819C810197F1F79C8382
:101A00008B838D819E8101979E838D838D819E81A5
:101A1000009769F714C06F81788589859A850E943F
:101A20004100DC01CB019E838D838D819E819A8351
:101A3000898389819A810197F1F79A838983CA5BA7
:101A4000DF4F0FB6F894DEBF0FBECDBFCF91DF9151
:101A50001F910F910895DF93CF93CDB7DEB72F97E6
:101A60000FB6F894DEBF0FBECDBF8F8783E067E06F
:101A700040E00E94AC0683E065E040E00E94AC06D6
:101A800083E066E040E00E94AC0682E06F850E9441
:101A9000280983E067E041E00E94AC0680E090E026
:101AA000A0E8BFE38B879C87AD87BE876B857C856D
:101AB0008D859E8520E030E04AEF54E40E941702B5
:101AC000DC01CB018F839887A987BA876F817885DE
:101AD00089859A8520E030E040E85FE30E94710349
:101AE00088232CF481E090E09E838D833FC06F813A
:101AF000788589859A8520E03FEF4FE757E40E947B
:101B0000110318164CF56B857C858D859E8520E02C
:101B100030E040E251E40E941702DC01CB01BC013D
:101B2000CD010E944100DC01CB019E838D830FC05B
:101B300088EC90E09C838B838B819C810197F1F7EB
:101B40009C838B838D819E8101979E838D838D8164
:101B50009E81009769F714C06F81788589859A8581
:101B60000E944100DC01CB019E838D838D819E818B
:101B70009A83898389819A810197F1F79A8389836E
:101B800083E067E040E00E94AC062F960FB6F89421
:101B9000DEBF0FBECDBFCF91DF910895DF93CF930E
:101BA000CDB7DEB72F970FB6F894DEBF0FBECDBF0F
:101BB0008F8783E067E040E00E94AC0683E065E049
:101BC00041E00E94AC0683E066E040E00E94AC0683
:101BD00082E06F850E94280983E067E041E00E946F
:101BE000AC0680E090E0A0E8BFE38B879C87AD87E0
:101BF000BE876B857C858D859E8520E030E04AEF31
:101C000054E40E941702DC01CB018F839887A987D7
:101C1000BA876F81788589859A8520E030E040E831
:101C20005FE30E94710388232CF481E090E09E839F
:101C30008D833FC06F81788589859A8520E03FEF4D
:101C40004FE757E40E94110318164CF56B857C850D
:101C50008D859E8520E030E040E251E40E9417022D
:101C6000DC01CB01BC01CD010E944100DC01CB01B4
:101C70009E838D830FC088EC90E09C838B838B8147
:101C80009C810197F1F79C838B838D819E810197C5
:101C90009E838D838D819E81009769F714C06F812B
:101CA000788589859A850E944100DC01CB019E835D
:101CB0008D838D819E819A83898389819A81019701
:101CC000F1F79A83898383E067E040E00E94AC06E5
:101CD0002F960FB6F894DEBF0FBECDBFCF91DF9128
:101CE00008950F931F93DF93CF9300D00F92CDB73A
:101CF000DEB79B838A8319820EC08981282F30E04A
:101D00008A819B81FC01E20FF31F80810E94CE0D2E
:101D100089818F5F89838981082F10E08A819B8167
:101D20000E943D2A0817190740F30F900F900F905B
:101D3000CF91DF911F910F910895DF93CF9300D042
:101D400000D0CDB7DEB79B838A836C8319820EC027
:101D50008981282F30E08A819B81FC01E20FF31FEB
:101D600080810E94CE0D89818F5F898399818C81CA
:101D7000981770F30F900F900F900F90CF91DF9105
:101D80000895DF93CF9300D000D00F92CDB7DEB788
:101D90008A836B838A818031F0F48B818230D8F41E
:101DA00081E089838B81282F30E03D832C838C81D7
:101DB0009D81009731F02C813D812130310531F03A
:101DC0000BC08A8180580E942B0D06C08A818054E6
:101DD0000E942B0D01C0198289810F900F900F90E6
:101DE0000F900F90CF91DF910895DF93CF93CDB7F0
:101DF000DEB728970FB6F894DEBF0FBECDBF988729
:101E00008F8319828F81988520E137E2B9010E9482
:101E1000F229CB018A838A81282F30E080E197E282
:101E2000A901489F9001499F300D589F300D112402
:101E30008F819885821B930B98878F838F819885DC
:101E400028EE33E0B9010E94F229CB018B838B810C
:101E5000282F30E088EE93E0A901489F9001499F28
:101E6000300D589F300D11248F819885821B930B64
:101E700098878F838F81988524E630E0B9010E948E
:101E8000F229CB018C838C81282F30E084E690E00E
:101E9000A901489F9001499F300D589F300D112492
:101EA0008F819885821B930B98878F838F8198856C
:101EB0002AE030E0B9010E94F229CB018D838D81A7
:101EC000882F90E09C01220F331FC901880F991FB2
:101ED000880F991F280F391F8F819885821B930BBC
:101EE00098878F838F818E83198217C08981482FAD
:101EF00050E08981282F30E0CE010296FC01E20FEC
:101F0000F31F8081282F205DCE010296FC01E40F93
:101F1000F51F208389818F5F89838981853030F324
:101F2000CE01029665E00E949D0E28960FB6F894A9
:101F3000DEBF0FBECDBFCF91DF910895DF93CF936A
:101F4000CDB7DEB72A970FB6F894DEBF0FBECDBF70
:101F500098878F837A87698719828F81988520E196
:101F600037E2B9010E94F229CB018A838A81282FA6
:101F700030E080E197E2A901489F9001499F300D30
:101F8000589F300D11248F819885821B930B988761
:101F90008F838F81988528EE33E0B9010E94F22962
:101FA000CB018B838B81282F30E088EE93E0A90151
:101FB000489F9001499F300D589F300D11248F810B
:101FC0009885821B930B98878F838F81988524E651
:101FD00030E0B9010E94F229CB018C838C81282F3B
:101FE00030E084E690E0A901489F9001499F300DC0
:101FF000589F300D11248F819885821B930B9887F1
:102000008F838F8198852AE030E0B9010E94F22900
:10201000CB018D838D81882F90E09C01220F331F8F
:10202000C901880F991F880F991F280F391F8F81A9
:102030009885821B930B98878F838F818E8319825B
:1020400017C08981482F50E08981282F30E0CE01C8
:102050000296FC01E20FF31F8081282F205DCE0144
:102060000296FC01E40FF51F208389818F5F89832D
:102070008981853030F3198215C08981282F30E09D
:1020800089859A85DC01A20FB31F8981282F30E052
:10209000CE010296FC01E20FF31F80818C938981AF
:1020A0008F5F89838981853040F32A960FB6F89433
:1020B000DEBF0FBECDBFCF91DF910895DF93CF93E9
:1020C000CDB7DEB7E0E4F0E01082E9E2F0E083E3D0
:1020D0008083E0E4F0E086E88083EAE2F0E088E1F3
:1020E0008083CF91DF910895DF93CF930F92CDB787
:1020F000DEB78983EBE2F0E0808182958695877078
:10210000882F90E0817090700097A1F3ECE2F0E0EE
:10211000898180830F90CF91DF910895DF93CF93D2
:1021200000D0CDB7DEB79A838983EBE2F0E08081FF
:102130008823DCF7ECE2F0E08081E981FA8180839A
:102140000F900F90CF91DF9108950F931F93DF931E
:10215000CF93CDB7DEB7C95FD2400FB6F894DEBFDC
:102160000FBECDBFFE01ED50FF4F1082FE01EE50BD
:10217000FF4F80E48083FE01EF50FF4F1082FE018D
:10218000E051FF4F1082FE01E151FF4F1082FE012E
:10219000EC50FF4F81E08083CE018B509F4FC3599D
:1021A000DD4F99838883CD56D24080E690E0C159B7
:1021B000DD4F99838883CF56D2409FE0CF58DD4FC3
:1021C0009883C157D240C159DD4FE881F981CF567C
:1021D000D2400080C159DD4F88819981CF56D240CD
:1021E0000196C159DD4F99838883CF56D240C35998
:1021F000DD4FE881F981CD56D2400082C359DD4FD1
:1022000088819981CD56D2400196C359DD4F99837B
:102210008883CD56D240CF58DD4F9881C157D240E8
:102220009150CF58DD4F9883C157D240CF58DD4FE2
:10223000E881C157D240EE2331F6CE018C5F9E4F2C
:10224000CE58DD4F99838883C257D2408FE690E005
:10225000CC58DD4F99838883C457D2409DE0CA583B
:10226000DD4F9883C657D240CC58DD4FE881F981C5
:10227000C457D2400080CC58DD4F88819981C45723
:10228000D2400196CC58DD4F99838883C457D24001
:10229000CE58DD4FE881F981C257D2400082CE5836
:1022A000DD4F88819981C257D2400196CE58DD4FCB
:1022B00099838883C257D240CA58DD4F9881C65748
:1022C000D2409150CA58DD4F9883C657D240CA5861
:1022D000DD4FE881C657D240EE2331F6CE018F5E46
:1022E0009E4FC958DD4F99838883C757D2408CE7EA
:1022F00090E0C758DD4F99838883C957D2409BE04F
:10230000C558DD4F9883CB57D240C758DD4FE88181
:10231000F981C957D2400080C758DD4F8881998123
:10232000C957D2400196C758DD4F99838883C95752
:10233000D240C958DD4FE881F981C757D2400082A9
:10234000C958DD4F88819981C757D2400196C95835
:10235000DD4F99838883C757D240C558DD4F988198
:10236000CB57D2409150C558DD4F9883CB57D240C0
:10237000C558DD4FE881CB57D240EE2331F6CE0170
:10238000845E9E4FC458DD4F99838883CC57D240DA
:10239000C458DD4FE881F981CC57D240C258DD4F97
:1023A000F983E883CE57D24087E890E0C058DD4FEC
:1023B00099838883C058D2409AE0CE57DD4F9883E6
:1023C000C258D240C058DD4FE881F981C058D24090
:1023D0000080C058DD4F88819981C058D240019655
:1023E000C058DD4F99838883C058D240C258DD4F12
:1023F000E881F981CE57D2400082C258DD4F8881F2
:102400009981CE57D2400196C258DD4F9983888377
:10241000CE57D240CE57DD4F9881C258D24091500E
:10242000CE57DD4F9883C258D240CE57DD4FE8815A
:10243000C258D240EE2331F6C458DD4FE881F9810D
:10244000CC57D2401286CE01895D9E4FCD57DD4FCD
:1024500099838883C358D24082E990E0CB57DD4FFF
:1024600099838883C558D2409CE0C957DD4F988333
:10247000C758D240CB57DD4FE881F981C558D240CB
:102480000080CB57DD4F88819981C558D240019695
:10249000CB57DD4F99838883C558D240CD57DD4F48
:1024A000E881F981C358D2400082CD57DD4F888141
:1024B0009981C358D2400196CD57DD4F99838883C7
:1024C000C358D240C957DD4F9881C758D240915068
:1024D000C957DD4F9883C758D240C957DD4FE881AF
:1024E000C758D240EE2331F6CE018D5C9E4FC857BF
:1024F000DD4F99838883C858D2408EE990E0C65753
:10250000DD4F99838883CA58D24091E1C457DD4F8B
:102510009883CC58D240C657DD4FE881F981CA581C
:10252000D2400080C657DD4F88819981CA58D24079
:102530000196C657DD4F99838883CA58D240C85741
:10254000DD4FE881F981C858D2400082C857DD4F7D
:1025500088819981C858D2400196C857DD4F998328
:102560008883C858D240C457DD4F9881CC58D24098
:102570009150C457DD4F9883CC58D240C457DD4F9B
:10258000E881CC58D240EE2331F6CE018C5B9E4FD1
:10259000C357DD4F99838883CD58D24080EB90E0BC
:1025A000C157DD4F99838883CF58D2409DE0CF56E5
:1025B000DD4F9883C159D240C157DD4FE881F98181
:1025C000CF58D2400080C157DD4F88819981CF58C4
:1025D000D2400196C157DD4F99838883CF58D240AE
:1025E000C357DD4FE881F981CD58D2400082C357EF
:1025F000DD4F88819981CD58D2400196C357DD4F78
:1026000099838883CD58D240CF56DD4F9881C159E8
:10261000D2409150CF56DD4F9883C159D240CF560A
:10262000DD4FE881C159D240EE2331F6CE018F5AF9
:102630009E4FCE56DD4F99838883C259D2408DEB91
:1026400090E0CC56DD4F99838883C459D2409DE0F9
:10265000CA56DD4F9883C659D240CC56DD4FE8812B
:10266000F981C459D2400080CC56DD4F88819981D0
:10267000C459D2400196CC56DD4F99838883C45902
:10268000D240CE56DD4FE881F981C259D240008256
:10269000CE56DD4F88819981C259D2400196CE56DF
:1026A000DD4F99838883C259D240CA56DD4F988145
:1026B000C659D2409150CA56DD4F9883C659D24070
:1026C000CA56DD4FE881C659D240EE2331F6CE011D
:1026D000825A9E4FC956DD4F99838883C759D2408D
:1026E0008AEC90E0C756DD4F99838883C959D24060
:1026F0009FE0C556DD4F9883CB59D240C756DD4F7A
:10270000E881F981C959D2400080C756DD4F8881E0
:102710009981C959D2400196C756DD4F9983888364
:10272000C959D240C956DD4FE881F981C759D24015
:102730000082C956DD4F88819981C759D2400196E0
:10274000C956DD4F99838883C759D240C556DD4F9E
:102750009881CB59D2409150C556DD4F9883CB59C3
:10276000D240C556DD4FE881CB59D240EE2331F639
:10277000CE0183599E4FC456DD4F99838883CC592F
:10278000D24089ED90E0C256DD4F99838883CE59BF
:10279000D24091E1C056DD4F9883C05AD240C25614
:1027A000DD4FE881F981CE59D2400080C256DD4F1D
:1027B00088819981CE59D2400196C256DD4F9983C6
:1027C0008883CE59D240C456DD4FE881F981CC5977
:1027D000D2400082C456DD4F88819981CC59D240C5
:1027E0000196C456DD4F99838883CC59D240C05698
:1027F000DD4F9881C05AD2409150C056DD4F98832A
:10280000C05AD240C056DD4FE881C05AD240EE23B4
:1028100031F6CE0182589E4FCF55DD4F9983888384
:10282000C15AD240CF55DD4FE881F981C15AD2401B
:10283000CD55DD4FF983E883C35AD2408AEE90E04C
:10284000CB55DD4F99838883C55AD2409FE0C95547
:10285000DD4F9883C75AD240CB55DD4FE881F981CF
:10286000C55AD2400080CB55DD4F88819981C55A29
:10287000D2400196CB55DD4F99838883C55AD2400B
:10288000CD55DD4FE881F981C35AD2400082CD5544
:10289000DD4F88819981C35AD2400196CD55DD4FD5
:1028A00099838883C35AD240C955DD4F9881C75A4E
:1028B000D2409150C955DD4F9883C75AD240C9556F
:1028C000DD4FE881C75AD240EE2331F6CF55DD4FB8
:1028D000E881F981C15AD240108A1786CE0181570A
:1028E0009E4FC855DD4F99838883C85AD2408BEFDD
:1028F00090E0C655DD4F99838883CA5AD24090E153
:10290000C455DD4F9883CC5AD240C655DD4FE8817F
:10291000F981CA5AD2400080C655DD4F888199811D
:10292000CA5AD2400196C655DD4F99838883CA5A48
:10293000D240C855DD4FE881F981C85AD2400082A3
:10294000C855DD4F88819981C85AD2400196C85533
:10295000DD4F99838883C85AD240C455DD4F988192
:10296000CC5AD2409150C455DD4F9883CC5AD240B6
:10297000C455DD4FE881CC5AD240EE2331F6CE016A
:1029800081569E4FC355DD4F99838883CD5AD240DF
:102990008BE091E0C155DD4F99838883CF5AD240B7
:1029A00090E1CF54DD4F9883C15BD240C155DD4FDC
:1029B000E881F981CF5AD2400080C155DD4F88812E
:1029C0009981CF5AD2400196C155DD4F99838883B2
:1029D000CF5AD240C355DD4FE881F981CD5AD2405C
:1029E0000082C355DD4F88819981CD5AD24001962E
:1029F000C355DD4F99838883CD5AD240CF54DD4FE4
:102A00009881C15BD2409150CF54DD4F9883C15B18
:102A1000D240CF54DD4FE881C15BD240EE2331F686
:102A2000CE0181559E4FCE54DD4F99838883C25B82
:102A3000D240CE54DD4FE881F981C25BD240CC5404
:102A4000DD4FF983E883C45BD2408BE191E0CA5447
:102A5000DD4F99838883C65BD2409FE0C854DD4F29
:102A60009883C85BD240CA54DD4FE881F981C65BC8
:102A7000D2400080CA54DD4F88819981C65BD24024
:102A80000196CA54DD4F99838883C65BD240CC54EB
:102A9000DD4FE881F981C45BD2400082CC54DD4F28
:102AA00088819981C45BD2400196CC54DD4F9983D3
:102AB0008883C45BD240C854DD4F9881C85BD24044
:102AC0009150C854DD4F9883C85BD240C854DD4F45
:102AD000E881C85BD240EE2331F6CE54DD4FE88169
:102AE000F981C25BD2401786CE0181549E4FC754F4
:102AF000DD4F99838883C95BD2408BE291E0C55456
:102B0000DD4F99838883CB5BD2409AE0C354DD4F7D
:102B10009883CD5BD240C554DD4FE881F981CB5B12
:102B2000D2400080C554DD4F88819981CB5BD24073
:102B30000196C554DD4F99838883CB5BD240C7543F
:102B4000DD4FE881F981C95BD2400082C754DD4F77
:102B500088819981C95BD2400196C754DD4F998322
:102B60008883C95BD240C354DD4F9881CD5BD2408E
:102B70009150C354DD4F9883CD5BD240C354DD4F99
:102B8000E881CD5BD240EE2331F6CE0187539E4FD4
:102B9000C254DD4F99838883CE5BD24085E391E0B8
:102BA000C054DD4F99838883C05CD2409EE0CE53F1
:102BB000DD4F9883C25CD240C054DD4FE881F9817B
:102BC000C05CD2400080C054DD4F88819981C05CD8
:102BD000D2400196C054DD4F99838883C05CD240B7
:102BE000C254DD4FE881F981CE5BD2400082C254ED
:102BF000DD4F88819981CE5BD2400196C254DD4F72
:102C000099838883CE5BD240CE53DD4F9881C25CDE
:102C1000D2409150CE53DD4F9883C25CD240CE5308
:102C2000DD4FE881C25CD240EE2331F6CE018952FD
:102C30009E4FCD53DD4F99838883C35CD24083E49C
:102C400091E0CB53DD4F99838883C55CD2409FE0F0
:102C5000C953DD4F9883C75CD240CB53DD4FE88129
:102C6000F981C55CD2400080CB53DD4F88819981CA
:102C7000C55CD2400196CB53DD4F99838883C55CF8
:102C8000D240CD53DD4FE881F981C35CD240008250
:102C9000CD53DD4F88819981C35CD2400196CD53DD
:102CA000DD4F99838883C35CD240C953DD4F98813F
:102CB000C75CD2409150C953DD4F9883C75CD24066
:102CC000C953DD4FE881C75CD240EE2331F6CE0117
:102CD0008A519E4FC853DD4F99838883C85CD24088
:102CE00082E591E0C653DD4F99838883CA5CD24068
:102CF0009DE0C453DD4F9883CC5CD240C653DD4F7A
:102D0000E881F981CA5CD2400080C653DD4F8881DA
:102D10009981CA5CD2400196C653DD4F998388835E
:102D2000CA5CD240C853DD4FE881F981C85CD2400B
:102D30000082C853DD4F88819981C85CD2400196DA
:102D4000C853DD4F99838883C85CD240C453DD4F9C
:102D50009881CC5CD2409150C453DD4F9883CC5CB9
:102D6000D240C453DD4FE881CC5CD240EE2331F633
:102D7000CE018D509E4FC353DD4F99838883CD5C28
:102D8000D2408FE591E0C153DD4F99838883CF5CBA
:102D9000D2409AE0CF52DD4F9883C15DD240C153FB
:102DA000DD4FE881F981CF5CD2400080C153DD4F17
:102DB00088819981CF5CD2400196C153DD4F9983C0
:102DC0008883CF5CD240C353DD4FE881F981CD5C6D
:102DD000D2400082C353DD4F88819981CD5CD240BF
:102DE0000196C353DD4F99838883CD5CD240CF5287
:102DF000DD4F9881C15DD2409150CF52DD4F988315
:102E0000C15DD240CF52DD4FE881C15DD240EE239B
:102E100031F6CE0183509E4FCE52DD4F9983888389
:102E2000C25DD24089E691E0CC52DD4F9983888320
:102E3000C45DD24091E1CA52DD4F9883C65DD24055
:102E4000CC52DD4FE881F981C45DD2400080CC5284
:102E5000DD4F88819981C45DD2400196CC52DD4F0F
:102E600099838883C45DD240CE52DD4FE881F981D9
:102E7000C25DD2400082CE52DD4F88819981C25D11
:102E8000D2400196CE52DD4F99838883C25DD240F5
:102E9000CA52DD4F9881C65DD2409150CA52DD4F73
:102EA0009883C65DD240CA52DD4FE881C65DD240EC
:102EB000EE2331F6CE01825F9D4FC952DD4F9983DB
:102EC0008883C75DD2408AE791E0C752DD4F99837E
:102ED0008883C95DD2409EE0C552DD4F9883CB5DAB
:102EE000D240C752DD4FE881F981C95DD2400080F0
:102EF000C752DD4F88819981C95DD2400196C75282
:102F0000DD4F99838883C95DD240C952DD4FE88186
:102F1000F981C75DD2400082C952DD4F8881998115
:102F2000C75DD2400196C952DD4F99838883C75D42
:102F3000D240C552DD4F9881CB5DD2409150C552F1
:102F4000DD4F9883CB5DD240C552DD4FE881CB5D2C
:102F5000D240EE2331F6CE01845E9D4FC452DD4F48
:102F600099838883CC5DD24088E891E0C252DD4FDE
:102F700099838883CE5DD2409FE0C052DD4F988315
:102F8000C05ED240C252DD4FE881F981CE5DD240B1
:102F90000080C252DD4F88819981CE5DD24001967A
:102FA000C252DD4F99838883CE5DD240C452DD4F3B
:102FB000E881F981CC5DD2400082C452DD4F888126
:102FC0009981CC5DD2400196C452DD4F99838883AC
:102FD000CC5DD240C052DD4F9881C05ED24091504E
:102FE000C052DD4F9883C05ED240C052DD4FE881B1
:102FF000C05ED240EE2331F6CE01855D9D4FCF51AC
:10300000DD4F99838883C15ED24087E991E0CD513D
:10301000DD4F99838883C35ED24093E0CB51DD4F6F
:103020009883C55ED240CD51DD4FE881F981C35E02
:10303000D2400080CD51DD4F88819981C35ED2405E
:103040000196CD51DD4F99838883C35ED240CF5125
:10305000DD4FE881F981C15ED2400082CF51DD4F62
:1030600088819981C15ED2400196CF51DD4F99830D
:103070008883C15ED240CB51DD4F9881C55ED2407E
:103080009150CB51DD4F9883C55ED240CB51DD4F7F
:10309000E881C55ED240EE2331F6FE01E25DFD4FD0
:1030A00080919A0190919B01A0919C01B0919D010A
:1030B00080839183A283B383CE018E5C9D4FCA51DE
:1030C000DD4F99838883C65ED2408EE991E0C85176
:1030D000DD4F99838883C85ED24099E0C651DD4FA9
:1030E0009883CA5ED240C851DD4FE881F981C85E3D
:1030F000D2400080C851DD4F88819981C85ED2409E
:103100000196C851DD4F99838883C85ED240CA5169
:10311000DD4FE881F981C65ED2400082CA51DD4FA1
:1031200088819981C65ED2400196CA51DD4F99834C
:103130008883C65ED240C651DD4F9881CA5ED240B8
:103140009150C651DD4F9883CA5ED240C651DD4FC3
:10315000E881CA5ED240EE2331F6CE01855C9D4FF8
:10316000C551DD4F99838883CB5ED24087EA91E0D9
:10317000C351DD4F99838883CD5ED24091E1C15127
:10318000DD4F9883CF5ED240C351DD4FE881F98196
:10319000CD5ED2400080C351DD4F88819981CD5EE4
:1031A000D2400196C351DD4F99838883CD5ED240D2
:1031B000C551DD4FE881F981CB5ED2400082C55117
:1031C000DD4F88819981CB5ED2400196C551DD4F9C
:1031D00099838883CB5ED240C151DD4F9881CF5E09
:1031E000D2409150C151DD4F9883CF5ED240C15142
:1031F000DD4FE881CF5ED240EE2331F6CE01845B15
:103200009D4FC051DD4F99838883C05FD24088EBCA
:1032100091E0CE50DD4F99838883C25FD24090E128
:10322000CC50DD4F9883C45FD240CE50DD4FE88153
:10323000F981C25FD2400080CE50DD4F88819981F4
:10324000C25FD2400196CE50DD4F99838883C25F22
:10325000D240C051DD4FE881F981C05FD240008289
:10326000C051DD4F88819981C05FD2400196C05125
:10327000DD4F99838883C05FD240CC50DD4F988169
:10328000C45FD2409150CC50DD4F9883C45FD24090
:10329000CC50DD4FE881C45FD240EE2331F6CE0141
:1032A000845A9D4FCB50DD4F99838883C55FD240B0
:1032B00088EC91E0C950DD4F99838883C75FD24085
:1032C00091E1C750DD4F9883C95FD240C950DD4FAF
:1032D000E881F981C75FD2400080C950DD4F888105
:1032E0009981C75FD2400196C950DD4F9983888389
:1032F000C75FD240CB50DD4FE881F981C55FD24036
:103300000082CB50DD4F88819981C55FD240019604
:10331000CB50DD4F99838883C55FD240C750DD4FC6
:103320009881C95FD2409150C750DD4F9883C95FE3
:10333000D240C750DD4FE881C95FD240EE2331F65D
:1033400081E067E040E00E949B0581E067E041E0AA
:103350000E94AC0681E066E041E00E949B0581E0AE
:1033600066E040E00E94AC060E949A0A0E94B90AF8
:103370000E9473090E945E100E94C02881E066E0EE
:1033800041E00E94AC06FE01EE50FF4F80E48083D6
:1033900006C00E94CA09FE01EE50FF4F8083FE0165
:1033A000EE50FF4F80818034A1F3FE01EE50FF4FBD
:1033B0008081813309F0EEC581E066E040E00E9443
:1033C000AC060E945A27FE01EF50FF4F8083FE019A
:1033D000EF50FF4F8081843009F0C5C081E00E942A
:1033E0002B0D80E060E00E94C10ECE018C5F9E4FED
:1033F0000E94710EFE01E551FF4F80E090E0AAE7C8
:10340000B4E480839183A283B3838E0109511F4F5B
:10341000FE01E551FF4F608171818281938120E03F
:1034200030E04AEF54E40E941702DC01CB01F801BE
:1034300080839183A283B383FE01E951FF4F6081B2
:1034400071818281938120E030E040E85FE30E9457
:103450007103882344F4FE01EB51FF4F81E090E0BB
:103460009183808364C0FE01E951FF4F60817181C7
:103470008281938120E03FEF4FE757E40E941103E0
:1034800018160CF043C0FE01E551FF4F60817181B9
:103490008281938120E030E040E251E40E941702F3
:1034A000DC01CB018E010B511F4FBC01CD010E94ED
:1034B0004100DC01CB01F801918380831FC0FE0134
:1034C000ED51FF4F88EC90E091838083FE01ED5138
:1034D000FF4F808191810197F1F7FE01ED51FF4F80
:1034E00091838083DE01AB51BF4FFE01EB51FF4F53
:1034F00080819181019711969C938E93FE01EB51EF
:10350000FF4F808191810097D1F628C08E010B5129
:103510001F4FFE01E951FF4F6081718182819381CC
:103520000E944100DC01CB01F80191838083DE0120
:10353000AF51BF4FFE01EB51FF4F8081918111963A
:103540009C938E93FE01EF51FF4F808191810197F3
:10355000F1F7FE01EF51FF4F91838083FE01E051AF
:10356000FF4F108296C181E00E942B0D80E060E049
:103570000E94C10ECE018F5E9E4F0E94710EFE0111
:10358000E352FF4F80E090E0AAE7B4E480839183A8
:10359000A283B3838E0107521F4FFE01E352FF4FF8
:1035A000608171818281938120E030E04AEF54E4B0
:1035B0000E941702DC01CB01F80180839183A28372
:1035C000B383FE01E752FF4F608171818281938155
:1035D00020E030E040E85FE30E947103882344F478
:1035E000FE01E952FF4F81E090E09183808364C047
:1035F000FE01E752FF4F608171818281938120E05B
:103600003FEF4FE757E40E94110318160CF043C038
:10361000FE01E352FF4F608171818281938120E03E
:1036200030E040E251E40E941702DC01CB018E0140
:1036300009521F4FBC01CD010E944100DC01CB01AA
:10364000F801918380831FC0FE01EB52FF4F88EC8D
:1036500090E091838083FE01EB52FF4F8081918146
:103660000197F1F7FE01EB52FF4F91838083DE015A
:10367000A952BF4FFE01E952FF4F8081918101970E
:1036800011969C938E93FE01E952FF4F80819181A8
:103690000097D1F627C08E0109521F4FFE01E75255
:1036A000FF4F60817181828193810E944100DC0122
:1036B000CB01F80191838083DE01AD52BF4FFE0143
:1036C000E952FF4F808191818D939C93FE01ED52D1
:1036D000FF4F808191810197F1F7FE01ED52FF4F7D
:1036E0009183808381E00E942B0D80E060E00E9446
:1036F000C10EDE01A051BF4FFE01E051FF4F80819E
:103700008F5F8C93FE01E051FF4F8081833009F47D
:10371000B9C0CE01845E9E4F0E94710EFE01E1533E
:10372000FF4F80E090E0AAEFB3E480839183A2830F
:10373000B3838E0105531F4FFE01E153FF4F60819C
:1037400071818281938120E030E04AEF54E40E944D
:103750001702DC01CB01F80180839183A283B3833C
:10376000FE01E553FF4F608171818281938120E0EA
:1037700030E040E85FE30E947103882344F4FE01D7
:10378000E753FF4F81E090E09183808364C0FE01A6
:10379000E553FF4F608171818281938120E03FEF8B
:1037A0004FE757E40E94110318160CF043C0FE01C6
:1037B000E153FF4F608171818281938120E030E08D
:1037C00040E251E40E941702DC01CB018E01075355
:1037D0001F4FBC01CD010E944100DC01CB01F8016B
:1037E000918380831FC0FE01E953FF4F88EC90E076
:1037F00091838083FE01E953FF4F8081918101977E
:10380000F1F7FE01E953FF4F91838083DE01A75357
:10381000BF4FFE01E753FF4F8081918101971196C1
:103820009C938E93FE01E753FF4F80819181009717
:10383000D1F628C08E0107531F4FFE01E553FF4FFD
:1038400060817181828193810E944100DC01CB0102
:10385000F80191838083DE01AB53BF4FFE01E75334
:10386000FF4F8081918111969C938E93FE01EB53C3
:10387000FF4F808191810197F1F7FE01EB53FF4FDC
:1038800091838083FE01E051FF4F8081833008F4F3
:1038900098CDFE01E051FF4F8081833080F008C059
:1038A0009E012C503F4F81E067E0A9010E94BD07B7
:1038B000FE01EC50FF4F8081813091F35FCD81E0BC
:1038C0000E942B0D80E060E00E94C10ECE018E5C54
:1038D0009D4F0E94710E80E061E00E94C10ECE01FA
:1038E00081579E4F0E94710EFE01EF53FF4F80E003
:1038F00090ECAAE5B5E480839183A283B3838E0123
:1039000003541F4FFE01EF53FF4F6081718182818D
:10391000938120E030E04AEF54E40E941702DC017A
:10392000CB01F80180839183A283B383FE01E3542A
:10393000FF4F608171818281938120E030E040E817
:103940005FE30E947103882344F4FE01E554FF4FB6
:1039500081E090E09183808364C0FE01E354FF4FD7
:10396000608171818281938120E03FEF4FE757E4CE
:103970000E94110318160CF043C0FE01EF53FF4FD5
:10398000608171818281938120E030E040E251E4E6
:103990000E941702DC01CB018E0105541F4FBC01B0
:1039A000CD010E944100DC01CB01F80191838083AD
:1039B0001FC0FE01E754FF4F88EC90E091838083A5
:1039C000FE01E754FF4F808191810197F1F7FE01DD
:1039D000E754FF4F91838083DE01A554BF4FFE0162
:1039E000E554FF4F80819181019711969C938E93AE
:1039F000FE01E554FF4F808191810097D1F627C0E9
:103A00008E0105541F4FFE01E354FF4F6081718109
:103A1000828193810E944100DC01CB01F8019183F6
:103A20008083DE01A954BF4FFE01E554FF4F808122
:103A300091818D939C93FE01E954FF4F8081918188
:103A40000197F1F7FE01E954FF4F9183808381E0F4
:103A50000E942B0D80E060E00E94C10ECE01825AD0
:103A60009E4F0E94710E80E061E00E94C10ECE0167
:103A70008B509F4F0E94710EFE01ED54FF4F80E06E
:103A800090ECAAE5B5E480839183A283B3838E0191
:103A900001551F4FFE01ED54FF4F608171818281FE
:103AA000938120E030E04AEF54E40E941702DC01E9
:103AB000CB01F80180839183A283B383FE01E1559A
:103AC000FF4F608171818281938120E030E040E886
:103AD0005FE30E947103882344F4FE01E355FF4F26
:103AE00081E090E09183808364C0FE01E155FF4F47
:103AF000608171818281938120E03FEF4FE757E43D
:103B00000E94110318160CF043C0FE01ED54FF4F44
:103B1000608171818281938120E030E040E251E454
:103B20000E941702DC01CB018E0103551F4FBC011F
:103B3000CD010E944100DC01CB01F801918380831B
:103B40001FC0FE01E555FF4F88EC90E09183808314
:103B5000FE01E555FF4F808191810197F1F7FE014C
:103B6000E555FF4F91838083DE01A355BF4FFE01D2
:103B7000E355FF4F80819181019711969C938E931D
:103B8000FE01E355FF4F808191810097D1F627C058
:103B90008E0103551F4FFE01E155FF4F608171817A
:103BA000828193810E944100DC01CB01F801918365
:103BB0008083DE01A755BF4FFE01E355FF4F808193
:103BC00091818D939C93FE01E755FF4F80819181F8
:103BD0000197F1F7FE01E755FF4F9183808381E064
:103BE0000E942B0D80E060E00E94C10ECE01835048
:103BF0009E4F0E94710E80E061E00E94C10ECE01D6
:103C0000845E9D4F0E94710EFE01EB55FF4F80E0D8
:103C100090ECAAE5B5E480839183A283B3838E01FF
:103C20000F551F4FFE01EB55FF4F6081718182815F
:103C3000938120E030E04AEF54E40E941702DC0157
:103C4000CB01F80180839183A283B383FE01EF55FA
:103C5000FF4F608171818281938120E030E040E8F4
:103C60005FE30E947103882344F4FE01E156FF4F95
:103C700081E090E09183808364C0FE01EF55FF4FA7
:103C8000608171818281938120E03FEF4FE757E4AB
:103C90000E94110318160CF043C0FE01EB55FF4FB4
:103CA000608171818281938120E030E040E251E4C3
:103CB0000E941702DC01CB018E0101561F4FBC018F
:103CC000CD010E944100DC01CB01F801918380838A
:103CD0001FC0FE01E356FF4F88EC90E09183808384
:103CE000FE01E356FF4F808191810197F1F7FE01BC
:103CF000E356FF4F91838083DE01A156BF4FFE0143
:103D0000E156FF4F80819181019711969C938E938C
:103D1000FE01E156FF4F808191810097D1F627C0C7
:103D20008E0101561F4FFE01EF55FF4F60817181DB
:103D3000828193810E944100DC01CB01F8019183D3
:103D40008083DE01A556BF4FFE01E156FF4F808103
:103D500091818D939C93FE01E556FF4F8081918167
:103D60000197F1F7FE01E556FF4F9183808381E0D3
:103D70000E942B0D80E060E00E94C10ECE018D5CA0
:103D80009E4F0E94710E80E061E00E94C10ECE0144
:103D900089529E4F0E94710EFE01E956FF4F80E04E
:103DA00090ECAAE5B5E480839183A283B3838E016E
:103DB0000D561F4FFE01E956FF4F608171818281D0
:103DC000938120E030E04AEF54E40E941702DC01C6
:103DD000CB01F80180839183A283B383FE01ED566A
:103DE000FF4F608171818281938120E030E040E863
:103DF0005FE30E947103882344F4FE01EF56FF4FF6
:103E000081E090E09183808364C0FE01ED56FF4F16
:103E1000608171818281938120E03FEF4FE757E419
:103E20000E94110318160CF043C0FE01E956FF4F23
:103E3000608171818281938120E030E040E251E431
:103E40000E941702DC01CB018E010F561F4FBC01EF
:103E5000CD010E944100DC01CB01F80191838083F8
:103E60001FC0FE01E157FF4F88EC90E091838083F3
:103E7000FE01E157FF4F808191810197F1F7FE012B
:103E8000E157FF4F91838083DE01AF56BF4FFE01A4
:103E9000EF56FF4F80819181019711969C938E93ED
:103EA000FE01EF56FF4F808191810097D1F627C028
:103EB0008E010F561F4FFE01ED56FF4F608171813D
:103EC000828193810E944100DC01CB01F801918342
:103ED0008083DE01A357BF4FFE01EF56FF4F808165
:103EE00091818D939C93FE01E357FF4F80819181D7
:103EF0000197F1F7FE01E357FF4F9183808381E043
:103F00000E942B0D80E060E00E94C10ECE01845B18
:103F10009D4F0E94710E80E061E00E94C10ECE01B3
:103F2000845A9D4F0E94710EFE01EE50FF4F80E4B7
:103F3000808306C00E94CA09FE01EE50FF4F8083B5
:103F4000FE01EE50FF4F80818034A1F3FE01EE5060
:103F5000FF4F8081813331F4FE01E151FF4F81E059
:103F6000808310C0FE01E151FF4F108281E00E946A
:103F70002B0D80E060E00E94C10ECE01855C9D4F5C
:103F80000E94710EFE01E151FF4F8081813009F4E2
:103F900096CCF4C9FE01EE50FF4F8081823309F0C8
:103FA000F2C081E066E040E00E94AC06FE01EE5007
:103FB000FF4F80E48083FE01ED50FF4F108281E0CF
:103FC0000E942B0D80E060E00E94C10E82E30E94FF
:103FD0007410CE018D509F4F0E948E10FE01ED5047
:103FE000FF4F8081813331F4CE0181569E4F0E9474
:103FF000710E14C0FE01ED50FF4F8081803371F4CB
:10400000CE0181559E4F0E94710E80E061E00E94BA
:10401000C10ECE0181549E4F0E94710EFE01E757E2
:10402000FF4F80E090E0AAEFB4E480839183A28305
:10403000B3838E010B571F4FFE01E757FF4F60817F
:1040400071818281938120E030E04AEF54E40E9444
:104050001702DC01CB01F80180839183A283B38333
:10406000FE01EB57FF4F608171818281938120E0D7
:1040700030E040E85FE30E947103882344F4FE01CE
:10408000ED57FF4F81E090E09183808364C0FE0193
:10409000EB57FF4F608171818281938120E03FEF78
:1040A0004FE757E40E94110318160CF043C0FE01BD
:1040B000E757FF4F608171818281938120E030E07A
:1040C00040E251E40E941702DC01CB018E010D5742
:1040D0001F4FBC01CD010E944100DC01CB01F80162
:1040E000918380831FC0FE01EF57FF4F88EC90E063
:1040F00091838083FE01EF57FF4F8081918101976B
:10410000F1F7FE01EF57FF4F91838083DE01AD573A
:10411000BF4FFE01ED57FF4F8081918101971196AE
:104120009C938E93FE01ED57FF4F80819181009704
:10413000D1F624C98E010D571F4FFE01EB57FF4FDB
:1041400060817181828193810E944100DC01CB01F9
:10415000F80191838083DE01A158BF4FFE01ED5726
:10416000FF4F8081918111969C938E93FE01E158BF
:10417000FF4F808191810197F1F7FE01E158FF4FD8
:1041800091838083FBC8FE01EE50FF4F8081833313
:1041900009F0F4C081E066E040E00E94AC06FE0158
:1041A000EE50FF4F80E48083FE01ED50FF4F108200
:1041B00081E00E942B0D80E060E00E94C10E83E34D
:1041C0000E947410CE018D509F4F0E948E10FE01F0
:1041D000ED50FF4F8081813331F4CE0183599E4FE2
:1041E0000E94710E14C0FE01ED50FF4F808180339C
:1041F00071F4CE0182589E4F0E94710E80E061E002
:104200000E94C10ECE0181549E4F0E94710EFE018C
:10421000E558FF4F80E090E0AAEFB4E480839183FB
:10422000A283B3838E0109581F4FFE01E558FF4F4B
:10423000608171818281938120E030E04AEF54E413
:104240000E941702DC01CB01F80180839183A283D5
:10425000B383FE01E958FF4F6081718182819381B0
:1042600020E030E040E85FE30E947103882344F4DB
:10427000FE01EB58FF4F81E090E09183808365C0A1
:10428000FE01E958FF4F608171818281938120E0B6
:104290003FEF4FE757E40E94110318160CF044C09B
:1042A000FE01E558FF4F608171818281938120E09A
:1042B00030E040E251E40E941702DC01CB018E01A4
:1042C0000B581F4FBC01CD010E944100DC01CB0106
:1042D000F801918380831FC0FE01ED58FF4F88ECE9
:1042E00090E091838083FE01ED58FF4F80819181A2
:1042F0000197F1F7FE01ED58FF4F91838083DE01B6
:10430000AB58BF4FFE01EB58FF4F80819181019761
:1043100011969C938E93FE01EB58FF4F8081918103
:104320000097D1F60C94BE198E010B581F4FFE0159
:10433000E958FF4F60817181828193810E94410021
:10434000DC01CB01F80191838083DE01AF58BF4FC0
:10435000FE01EB58FF4F8081918111969C938E93C3
:10436000FE01EF58FF4F808191810197F1F7FE0127
:10437000EF58FF4F918380830C94BE19FE01EE50DD
:10438000FF4F8081843309F0C3C081E066E040E0E4
:104390000E94AC06FE01EE50FF4F80E480830E9435
:1043A000C028FE01E359FF4F80E090E0AAEFB4E49B
:1043B00080839183A283B3838E0107591F4FFE012F
:1043C000E359FF4F608171818281938120E030E069
:1043D0004AEF54E40E941702DC01CB01F80180830C
:1043E0009183A283B383FE01E759FF4F60817181FE
:1043F0008281938120E030E040E85FE30E94710316
:10440000882344F4FE01E959FF4F81E090E0918355
:10441000808365C0FE01E759FF4F60817181828111
:10442000938120E03FEF4FE757E40E9411031816F5
:104430000CF044C0FE01E359FF4F6081718182811D
:10444000938120E030E040E251E40E941702DC0159
:10445000CB018E0109591F4FBC01CD010E944100C3
:10446000DC01CB01F801918380831FC0FE01EB5971
:10447000FF4F88EC90E091838083FE01EB59FF4F62
:10448000808191810197F1F7FE01EB59FF4F9183F4
:104490008083DE01A959BF4FFE01E959FF4F80819A
:1044A0009181019711969C938E93FE01E959FF4FDC
:1044B000808191810097D1F60C94BE198E01095923
:1044C0001F4FFE01E759FF4F608171818281938107
:1044D0000E944100DC01CB01F80191838083DE0161
:1044E000AD59BF4FFE01E959FF4F8081918111966F
:1044F0009C938E93FE01ED59FF4F8081918101972E
:10450000F1F7FE01ED59FF4F918380830C94BE19A2
:10451000FE01EE50FF4F8081853309F0D0C081E06D
:1045200066E040E00E94AC06FE01EE50FF4F80E4E2
:10453000808381E00E942B0D80E060E00E94C10E2C
:1045400085E30E947410CE01825F9D4F0E94710E20
:10455000FE01E15AFF4F80E090E0AAEFB4E48083CF
:104560009183A283B3838E01055A1F4FFE01E15A46
:10457000FF4F608171818281938120E030E04AEFBA
:1045800054E40E941702DC01CB01F801808391837F
:10459000A283B383FE01E55AFF4F6081718182815E
:1045A000938120E030E040E85FE30E9471038823BC
:1045B00044F4FE01E75AFF4F81E090E0918380834D
:1045C00065C0FE01E55AFF4F608171818281938150
:1045D00020E03FEF4FE757E40E94110318160CF05C
:1045E00044C0FE01E15AFF4F608171818281938155
:1045F00020E030E040E251E40E941702DC01CB01F0
:104600008E01075A1F4FBC01CD010E944100DC0101
:10461000CB01F801918380831FC0FE01E95AFF4F4F
:1046200088EC90E091838083FE01E95AFF4F8081FE
:1046300091810197F1F7FE01E95AFF4F9183808341
:10464000DE01A75ABF4FFE01E75AFF4F80819181DB
:10465000019711969C938E93FE01E75AFF4F80813C
:1046600091810097D1F60C94BE198E01075A1F4F05
:10467000FE01E55AFF4F60817181828193810E9422
:104680004100DC01CB01F80191838083DE01AB5A4C
:10469000BF4FFE01E75AFF4F8081918111969C9395
:1046A0008E93FE01EB5AFF4F808191810197F1F7C4
:1046B000FE01EB5AFF4F918380830C94BE19FE01DB
:1046C000EE50FF4F8081863309F079C181E066E0CA
:1046D00040E00E94AC06FE01EE50FF4F80E4808374
:1046E00081E00E942B0D80E060E00E94C10ECE01AF
:1046F0008D509E4F0E94710E80E061E00E94C10EBD
:10470000FE01ED50FF4F10828CE60E947410CE0126
:104710008D509F4F0E948E10FE01EF5AFF4F80E098
:1047200090E0A8E4B3E480839183A283B3838E01F5
:10473000035B1F4FFE01EF5AFF4F60817181828141
:10474000938120E030E04AEF54E40E941702DC013C
:10475000CB01F80180839183A283B383FE01E35BE5
:10476000FF4F608171818281938120E030E040E8D9
:104770005FE30E947103882344F4FE01E55BFF4F71
:1047800081E090E09183808364C0FE01E35BFF4F92
:10479000608171818281938120E03FEF4FE757E490
:1047A0000E94110318160CF043C0FE01EF5AFF4F90
:1047B000608171818281938120E030E040E251E4A8
:1047C0000E941702DC01CB018E01055B1F4FBC016B
:1047D000CD010E944100DC01CB01F801918380836F
:1047E0001FC0FE01E75BFF4F88EC90E09183808360
:1047F000FE01E75BFF4F808191810197F1F7FE0198
:10480000E75BFF4F91838083DE01A55BBF4FFE0115
:10481000E55BFF4F80819181019711969C938E9368
:10482000FE01E55BFF4F808191810097D1F628C0A2
:104830008E01055B1F4FFE01E35BFF4F60817181BD
:10484000828193810E944100DC01CB01F8019183B8
:104850008083DE01A95BBF4FFE01E55BFF4F8081D6
:10486000918111969C938E93FE01E95BFF4F8081AD
:1048700091810197F1F7FE01E95BFF4F91838083FE
:10488000FE01ED50FF4F8081813331F4CE01855D13
:104890009D4F0E94710E0BC0FE01ED50FF4F8081B5
:1048A000803329F4CE01825D9D4F0E94710EFE017E
:1048B000ED5BFF4F80E090E0AAEFB4E4808391834A
:1048C000A283B3838E01015C1F4FFE01ED5BFF4F9E
:1048D000608171818281938120E030E04AEF54E46D
:1048E0000E941702DC01CB01F80180839183A2832F
:1048F000B383FE01FF96608171818281938120E004
:1049000030E040E85FE30E94710388232CF481E0EB
:1049100090E09EAF8DAF47C0FE01FF966081718130
:104920008281938120E03FEF4FE757E40E9411031B
:1049300018166CF5FE01ED5BFF4F6081718182817D
:10494000938120E030E040E251E40E941702DC0154
:10495000CB01BC01CD010E944100DC01CB019EAF27
:104960008DAF0FC088EC90E09CAF8BAF8BAD9CAD52
:104970000197F1F79CAF8BAF8DAD9EAD01979EAFC8
:104980008DAF8DAD9EAD009769F70C94BE19FE01F9
:10499000FF9660817181828193810E944100DC01D8
:1049A000CB019EAF8DAF8DAD9EAD9AAF89AF89AD76
:1049B0009AAD0197F1F79AAF89AF0C94BE19FE0139
:1049C000EE50FF4F80818B3209F0A2C081E066E09B
:1049D00040E00E94AC06FE01EE50FF4F80E4808371
:1049E00081E00E942B0D80E060E00E94C10E8BE20E
:1049F0000E947410CE018C5B9E4F0E94710ECE01FE
:104A00008D509F4F0E948E1080E061E00E94C10E89
:104A1000CE0187539E4F0E94710EFE01ED50FF4F55
:104A200080810E94CE0D80E090E0AAEFB4E48DABCF
:104A30009EABAFABB8AF6DA97EA98FA998AD20E0B2
:104A400030E04AEF54E40E941702DC01CB0189AB4D
:104A50009AABABABBCAB69A97AA98BA99CA920E0A6
:104A600030E040E85FE30E94710388232CF481E08A
:104A700090E098AB8FA740C069A97AA98BA99CA99F
:104A800020E03FEF4FE757E40E941103181654F55A
:104A90006DA97EA98FA998AD20E030E040E251E4F5
:104AA0000E941702DC01CB01BC01CD010E94410034
:104AB000DC01CB0198AB8FA70FC088EC90E09EA7DC
:104AC0008DA78DA59EA50197F1F79EA78DA78FA510
:104AD00098A9019798AB8FA78FA598A9009769F718
:104AE0000C94BE1969A97AA98BA99CA90E944100BE
:104AF000DC01CB0198AB8FA78FA598A99CA78BA7AA
:104B00008BA59CA50197F1F79CA78BA70C94BE19C8
:104B1000FE01EE50FF4F80818D3209F0A2C081E08E
:104B200066E040E00E94AC06FE01EE50FF4F80E4DC
:104B3000808381E00E942B0D80E060E00E94C10E26
:104B40008DE20E947410CE018F5A9E4F0E94710E0A
:104B5000CE018D509F4F0E948E1080E061E00E9438
:104B6000C10ECE0187539E4F0E94710EFE01ED5083
:104B7000FF4F80810E94CE0D80E090E0AAEFB4E468
:104B80008FA398A7A9A7BAA76FA178A589A59AA569
:104B900020E030E04AEF54E40E941702DC01CB0130
:104BA0008BA39CA3ADA3BEA36BA17CA18DA19EA151
:104BB00020E030E040E85FE30E94710388232CF49A
:104BC00081E090E09AA389A340C06BA17CA18DA154
:104BD0009EA120E03FEF4FE757E40E941103181613
:104BE00054F56FA178A589A59AA520E030E040E2B0
:104BF00051E40E941702DC01CB01BC01CD010E94EF
:104C00004100DC01CB019AA389A30FC088EC90E09E
:104C100098A38F8F8F8D98A10197F1F798A38F8F0D
:104C200089A19AA101979AA389A389A19AA1009722
:104C300069F70C94BE196BA17CA18DA19EA10E9465
:104C40004100DC01CB019AA389A389A19AA19E8F7F
:104C50008D8F8D8D9E8D0197F1F79E8F8D8F0C948A
:104C6000BE19FE01EE50FF4F80818A3209F097C0D5
:104C700081E066E040E00E94AC06FE01EE50FF4F8E
:104C800080E4808381E00E942B0D80E060E00E9440
:104C9000C10E81E60E947410CE018A519E4F0E947F
:104CA000710E80E061E00E94C10ECE01855D9D4FD6
:104CB0000E94710E80E090E0AAEFB4E4898F9A8F91
:104CC000AB8FBC8F698D7A8D8B8D9C8D20E030E011
:104CD0004AEF54E40E941702DC01CB018D8B9E8BBE
:104CE000AF8BB88F6D897E898F89988D20E030E0F9
:104CF00040E85FE30E94710388232CF481E090E098
:104D00009C8B8B8B40C06D897E898F89988D20E02C
:104D10003FEF4FE757E40E941103181654F5698DD1
:104D20007A8D8B8D9C8D20E030E040E251E40E9432
:104D30001702DC01CB01BC01CD010E944100DC0166
:104D4000CB019C8B8B8B0FC088EC90E09A8B898B6E
:104D500089899A890197F1F79A8B898B8B899C892C
:104D600001979C8B8B8B8B899C89009769F70C949E
:104D7000BE196D897E898F89988D0E944100DC0162
:104D8000CB019C8B8B8B8B899C89988B8F878F8594
:104D900098890197F1F7988B8F870C94BE1981E061
:104DA00066E040E00E94AC06FE01EE50FF4F80E45A
:104DB000808381E00E942B0D80E060E00E94C10EA4
:104DC000CE01895D9E4F0E94710E80E090E0AAEFB7
:104DD000B4E48B879C87AD87BE876B857C858D858A
:104DE0009E8520E030E04AEF54E40E941702DC0187
:104DF000CB018F839887A987BA876F81788589854A
:104E00009A8520E030E040E85FE30E947103882348
:104E10002CF481E090E09E838D8340C06F81788583
:104E200089859A8520E03FEF4FE757E40E94110300
:104E3000181654F56B857C858D859E8520E030E0C5
:104E400040E251E40E941702DC01CB01BC01CD011C
:104E50000E944100DC01CB019E838D830FC088EC52
:104E600090E09C838B838B819C810197F1F79C83DD
:104E70008B838D819E8101979E838D838D819E8101
:104E8000009769F70C94BE196F81788589859A859A
:104E90000E944100DC01CB019E838D838D819E8128
:104EA0009A83898389819A810197F1F79A8389830B
:104EB0000C94BE19DF93CF93CDB7DEB7AE970FB684
:104EC000F894DEBF0FBECDBF1F8E1E8E80E48D8F87
:104ED000CE0184969BA78AA7E9EDF1E0FDA7ECA798
:104EE000F6E0FEA7ECA5FDA500808CA59DA501968A
:104EF0009DA78CA7EAA5FBA500828AA59BA5019684
:104F00009BA78AA79EA591509EA7EEA5EE2351F7D9
:104F100081E00E942B0D80E060E00E94C10ECE0176
:104F200084960E94710E80E090E0A8E4B3E4898F3B
:104F30009A8FAB8FBC8F698D7A8D8B8D9C8D20E085
:104F400030E04AEF54E40E941702DC01CB018D8B64
:104F50009E8BAF8BB88F6D897E898F89988D20E06D
:104F600030E040E85FE30E94710388232CF481E085
:104F700090E09C8B8B8B3FC06D897E898F89988D4B
:104F800020E03FEF4FE757E40E94110318164CF55D
:104F9000698D7A8D8B8D9C8D20E030E040E251E46C
:104FA0000E941702DC01CB01BC01CD010E9441002F
:104FB000DC01CB019C8B8B8B0FC088EC90E09A8B33
:104FC000898B89899A890197F1F79A8B898B8B89CB
:104FD0009C8901979C8B8B8B8B899C89009769F7A7
:104FE00014C06D897E898F89988D0E944100DC01F3
:104FF000CB019C8B8B8B8B899C89988B8F878F8522
:1050000098890197F1F7988B8F8780E061E00E9483
:10501000C10E1E8E8AC00E94CA098D8F8D8D80346C
:10502000D1F38E8D282F30E0CE018096FC01E20F67
:10503000F31F8D8D80838AE20E94CE0D80E090E088
:10504000A8ECB2E48B879C87AD87BE876B857C8597
:105050008D859E8520E030E04AEF54E40E941702DF
:10506000DC01CB018F839887A987BA876F81788508
:1050700089859A8520E030E040E85FE30E94710373
:1050800088232CF481E090E09E838D833FC06F8164
:10509000788589859A8520E03FEF4FE757E40E94A5
:1050A000110318164CF56B857C858D859E8520E057
:1050B00030E040E251E40E941702DC01CB01BC0168
:1050C000CD010E944100DC01CB019E838D830FC086
:1050D00088EC90E09C838B838B819C810197F1F716
:1050E0009C838B838D819E8101979E838D838D818F
:1050F0009E81009769F714C06F81788589859A85AC
:105100000E944100DC01CB019E838D838D819E81B5
:105110009A83898389819A810197F1F79A83898398
:1051200080E48D8F8E8D8F5F8E8F8E8D843008F40E
:1051300075CF1E8E18C08E8D882F90E0FC01ED5F1C
:10514000FD4F40818E8D282F30E0CE018096FC01EE
:10515000E20FF31F8081481719F48F8D8F5F8F8FB7
:105160008E8D8F5F8E8F8E8D843028F38F8DAE96CF
:105170000FB6F894DEBF0FBECDBFCF91DF9108957B
:10518000DF93CF93CDB7DEB7E1970FB6F894DEBFCC
:105190000FBECDBFCE01419699A788A7EFEDF1E0F4
:1051A000FBA7EAA7FCE0FCA7EAA5FBA500808AA56F
:1051B0009BA501969BA78AA7E8A5F9A5008288A5CB
:1051C00099A5019699A788A79CA591509CA7ECA5A5
:1051D000EE2351F71D8ECE014E969EA78DA7E7E0D8
:1051E000F2E0F8ABEFA7FAE0F9ABEFA5F8A9008081
:1051F0008FA598A9019698AB8FA7EDA5FEA5008273
:105200008DA59EA501969EA78DA799A9915099ABB2
:10521000E9A9EE2351F7188A1F8681E00E942B0D21
:1052200080E060E00E94C10ECE0141960E94710EA6
:1052300080E061E00E94C10E84E70E94741017C0F4
:10524000CE014D960E948E108D8D833219F48F857C
:105250008F5F8F878889282F30E04D8DCE014E9645
:10526000FC01E20FF31F408388898F5F888B8F8555
:10527000823031F78889882F90E09C01215030409E
:10528000CE014E96FC01E20FF31F8081833269F458
:105290008889882F90E09C0121503040CE014E96A5
:1052A000FC01E20FF31F83E48083188A18C0888909
:1052B000482F50E08889882F90E09C012F5F3F4F56
:1052C000CE014E96FC01E20FF31F2081CE014E96D7
:1052D000FC01E40FF51F208388898F5F888B888904
:1052E000893028F3CE014E966AE00E949D0E80E040
:1052F00090E0AAEFB3E48B879C87AD87BE876B8570
:105300007C858D859E8520E030E04AEF54E40E9444
:105310001702DC01CB018F839887A987BA876F8139
:10532000788589859A8520E030E040E85FE30E9437
:10533000710388232CF481E090E09E838D833FC02D
:105340006F81788589859A8520E03FEF4FE757E4A4
:105350000E94110318164CF56B857C858D859E8502
:1053600020E030E040E251E40E941702DC01CB0172
:10537000BC01CD010E944100DC01CB019E838D83E5
:105380000FC088EC90E09C838B838B819C8101977C
:10539000F1F79C838B838D819E8101979E838D8302
:1053A0008D819E81009769F714C06F81788589850A
:1053B0009A850E944100DC01CB019E838D838D8103
:1053C0009E819A83898389819A810197F1F79A83D3
:1053D0008983E1960FB6F894DEBF0FBECDBFCF91A3
:1053E000DF910895AA1BBB1B51E107C0AA1FBB1F79
:1053F000A617B70710F0A61BB70B881F991F5A9561
:10540000A9F780959095BC01CD0108952F923F9208
:105410004F925F926F927F928F929F92AF92BF92C4
:10542000CF92DF92EF92FF920F931F93CF93DF9370
:10543000CDB7DEB7CA1BDB0B0FB6F894DEBF0FBECD
:10544000CDBF09942A88398848885F846E847D841A
:105450008C849B84AA84B984C884DF80EE80FD801C
:105460000C811B81AA81B981CE0FD11D0FB6F89492
:10547000DEBF0FBECDBFED010895FC0101900020FD
:10548000E9F7809590958E0F9F1F0895F894FFCFB0
:105490003420746F2053484F572054454D500043DB
:1054A0004F525245435420504153530057524F4E90
:1054B0004720504153530054525920414741494ECF
:1054C000000057524F4E4720454E545259002B2C46
:1054D0002D20464F522046414E2053504545440012
:1054E00046414E205350454544202B2B0046414E0B
:1054F000205350454544202D2D003320746F204FFC
:1055000070656E20444F4F5200444F4F5220495314
:10551000204F50454E4E494E4700444F4F52204970
:1055200053204F50454E45440000003220746F20F8
:10553000636C6F736520444F4F5200444F4F5220AD
:10554000495320434C4F53494E4700444F4F52203C
:10555000495320434C4F5345440000414C52454170
:1055600044592121005350454544204C4556454C53
:105570003A20002A20454E204155544F2043545292
:105580004C004155544F20434F4E54524F4C004C09
:105590004544205354415445003520746F20544FE6
:1055A00047474C45204C45447300544F47474C49AE
:1055B0004E47204C454453003620746F2053484FCB
:1055C00057204C454473004F4E004F4646004F5005
:1055D00054494F4E533A0043686F6F736520616EB4
:1055E000204F7074696F6E0053484F57204D454EE1
:1055F0005520414741494E0031202D3E5945532009
:105600002C30202D3E204E4F00504153533A005431
:10561000454D504552415455524500000000000090
:105620000000003738392F3435362A3132332D30E7
:105630003C3E2B31323334202020202020202020DB
:02564000200048
:00000001FF
